:020000040000FA
:060000009EEF02F0120069
:0A00060001005A050000B0000000E0
:0400100014000000D8
:0C001400D9CFE6FFE1CFD9FFFD0EDBCF16
:1000200002F0FE0EDBCF03F00001B051021802E136
:10003000B151031819E1FB0EDB50010B01E089807F
:10004000FB0EDB50020B01E08982FB0EDB50040B40
:1000500001E08984FB0EDB50100B01E08988FB0E68
:10006000DB50200B01E0898AFD0EDBCF02F0FE0E93
:10007000DBCF03F0B251021802E1B351031814E1CF
:10008000FB0EDB50100B01E08A88FB0EDB50200BCF
:1000900001E08A8AFB0EDB50400B01E08A8CFB0EEC
:1000A000DB50800B01E08A8EFD0EDBCF02F0FE0EEE
:1000B000DBCF03F0B451021802E1B551031828E177
:1000C000FB0EDB50010B01E08B80FB0EDB50020BC3
:1000D00001E08B82FB0EDB50040B01E08B84FB0EF6
:1000E000DB50080B01E08B86FB0EDB50100B01E0B0
:1000F0008B88FB0EDB50200B01E08B8AFB0EDB5064
:10010000400B01E08B8CFB0EDB50800B01E08B8EF3
:10011000E552E7CFD9FF1200D9CFE6FFE1CFD9FFF3
:10012000FD0EDBCF02F0FE0EDBCF03F00001B0517D
:10013000021802E1B15103181EE1FB0EDB50010B66
:1001400001E08090FB0EDB50020B01E08092FB0E81
:10015000DB50040B01E08094FB0EDB50080B01E048
:100160008096FB0EDB50100B01E08098FB0EDB50FD
:10017000200B01E0809AFD0EDBCF02F0FE0EDBCFFC
:1001800003F0B251021802E1B351031814E1FB0E5F
:10019000DB50100B01E08198FB0EDB50200B01E0DF
:1001A000819AFB0EDB50400B01E0819CFB0EDB5083
:1001B000800B01E0819EFD0EDBCF02F0FE0EDBCF57
:1001C00003F0B451021802E1B551031828E1FB0E07
:1001D000DB50010B01E08290FB0EDB50020B01E0D3
:1001E0008292FB0EDB50040B01E08294FB0EDB508D
:1001F000080B01E08296FB0EDB50100B01E08298A9
:10020000FB0EDB50200B01E0829AFB0EDB50400B13
:1002100001E0829CFB0EDB50800B01E0829EE552E8
:10022000E7CFD9FF1200806A816A826A7E6A030E74
:10023000926E936A9468F28EF28CF2861200DACF94
:10024000E4FFE2CFDAFFE9CFE4FFEACFE4FFF6CF45
:10025000E4FFF7CFE4FFF5CFE4FFF3CFE4FFF4CF03
:10026000E4FFFACFE4FF00EE00F0020EE80403E33F
:10027000EECFE4FFFBD700EE02F0020EE80403E34A
:10028000EECFE4FFFBD7E652B6C0E6FFB7C0E6FF0D
:10029000B0C0E6FFB1C0E6FFBDDEE552E552E55273
:1002A000E552B8C0E6FFB9C0E6FFB0C0E6FFB1C096
:1002B000E6FFB0DEE552E552E552E552F290E55236
:1002C00000EE03F0020EE80403E3E5CFEDFFFBD7F9
:1002D00000EE01F0020EE80403E3E5CFEDFFFBD7EB
:1002E000E5CFFAFFE5CFF4FFE5CFF3FFE5CFF5FF6C
:1002F000E5CFF7FFE5CFF6FFE5CFEAFFE5CFE9FF72
:10030000E5CFDAFF1100D9CFE6FFE1CFD9FFE65202
:10031000DF6ADF6ADFCF02F00A0EE76E0218E8AE8E
:1003200002D0E73402D0E750025C07E2290EE66E05
:1003300077EC02F0E552DF2AEDD7E552E552E7CF40
:10034000D9FF1200D9CFE6FFE1CFD9FF020EE12697
:10035000DE6ADD6A68DF82A00ED0B6C0E6FFB7C0F5
:10036000E6FFB0C0E6FFB1C0E6FFD6DEE552E552DB
:10037000E552E55200D082A20ED0B8C0E6FFB9C067
:10038000E6FFB0C0E6FFB1C0E6FFC6DEE552E552CB
:10039000E552E5520DD0B8C0E6FFB9C0E6FFB0C0E7
:1003A000E6FFB1C0E6FF36DEE552E552E552E55222
:1003B00082A40ED0BCC0E6FFBDC0E6FFB2C0E6FF1F
:1003C000B3C0E6FFA9DEE552E552E552E5520DD095
:1003D000BCC0E6FFBDC0E6FFB2C0E6FFB3C0E6FFAB
:1003E00019DEE552E552E552E552D9CFE9FFDACF01
:1003F000EAFFEE50ED1011E1010EDE6EDD6ABAC0CB
:10040000E6FFBBC0E6FFB2C0E6FFB3C0E6FF02DE18
:10041000E552E552E552E5520FD0DE6ADD6ABAC018
:10042000E6FFBBC0E6FFB2C0E6FFB3C0E6FF74DE86
:10043000E552E552E552E55266DF8DD7020EE15CEA
:1004400002E2E16AE552E16EE552E7CFD9FF120020
:10045000060EF66E000EF76E000EF86E0001090033
:10046000F550C96F0900F550CA6F03E1C96701D0A3
:100470003DD00900F550C46F0900F550C56F090063
:10048000F550C66F09000900F550E96E0900F550F6
:10049000EA6E090009000900F550C76F0900F55020
:1004A000C86F09000900F6CFCBF0F7CFCCF0F8CF3A
:1004B000CDF0C4C0F6FFC5C0F7FFC6C0F8FF00010D
:1004C000C75302E1C85307E00900F550EE6EC707B5
:1004D000F8E2C807F9D7CBC0F6FFCCC0F7FFCDC014
:0E04E000F8FF0001C907000ECA5BBFD712006B
:0204EE00FF0EFF
:1004F000E350056EEF0E01D0F30EE76EE72E7EEFB0
:1005000002F00C0E046EE76AE72E84EF02F0042E70
:0C05100083EF02F0052E7CEF02F01200D9
:04051C00000EF36E6C
:1005200000EE00F0010E01D81200EA6002D0EE6A7F
:0C053000FCD7F350E9601200EE6AFCD723
:04053C0010EE60F06D
:1005400020EE60F0F86A019C28EC02F0ACEC02F0BE
:08055000A2EC01F0FBD7120040
:0205580012008F
:06055A0000000100020098
:0E056000100004004000200010000100020006
:020000040030CA
:0100010025D9
:010005008872
:0100060001F8
:00000001FF
